{
  "contractName": "PropertyTrackingSystem",
  "abi": [
    {
      "inputs": [
        {
          "internalType": "uint256",
          "name": "id",
          "type": "uint256"
        },
        {
          "internalType": "string",
          "name": "_location",
          "type": "string"
        },
        {
          "internalType": "uint256",
          "name": "_size",
          "type": "uint256"
        }
      ],
      "name": "registerProperty",
      "outputs": [],
      "stateMutability": "nonpayable",
      "type": "function"
    },
    {
      "inputs": [
        {
          "internalType": "uint256",
          "name": "id",
          "type": "uint256"
        },
        {
          "internalType": "address",
          "name": "_newOwner",
          "type": "address"
        }
      ],
      "name": "transferOwnership",
      "outputs": [],
      "stateMutability": "nonpayable",
      "type": "function"
    },
    {
      "inputs": [
        {
          "internalType": "uint256",
          "name": "id",
          "type": "uint256"
        }
      ],
      "name": "getPropertyDetails",
      "outputs": [
        {
          "components": [
            {
              "internalType": "uint256",
              "name": "propertyId",
              "type": "uint256"
            },
            {
              "internalType": "string",
              "name": "location",
              "type": "string"
            },
            {
              "internalType": "uint256",
              "name": "size",
              "type": "uint256"
            },
            {
              "internalType": "address",
              "name": "owner",
              "type": "address"
            },
            {
              "internalType": "bool",
              "name": "isRegistered",
              "type": "bool"
            }
          ],
          "internalType": "struct PropertyTrackingSystem.Property",
          "name": "",
          "type": "tuple"
        }
      ],
      "stateMutability": "view",
      "type": "function",
      "constant": true
    }
  ],
  "bytecode": "0x608060405234801561001057600080fd5b50610d4c806100206000396000f3fe608060405234801561001057600080fd5b50600436106100415760003560e01c8063126dbe431461004657806329507f73146100765780636b6c04b614610092575b600080fd5b610060600480360381019061005b9190610559565b6100ae565b60405161006d91906106f7565b60405180910390f35b610090600480360381019061008b9190610745565b610253565b005b6100ac60048036038101906100a791906108ba565b6103b0565b005b6100b66104c8565b60008083815260200190815260200160002060030160149054906101000a900460ff16610118576040517f08c379a000000000000000000000000000000000000000000000000000000000815260040161010f90610986565b60405180910390fd5b6000808381526020019081526020016000206040518060a00160405290816000820154815260200160018201805461014f906109d5565b80601f016020809104026020016040519081016040528092919081815260200182805461017b906109d5565b80156101c85780601f1061019d576101008083540402835291602001916101c8565b820191906000526020600020905b8154815290600101906020018083116101ab57829003601f168201915b50505050508152602001600282015481526020016003820160009054906101000a900473ffffffffffffffffffffffffffffffffffffffff1673ffffffffffffffffffffffffffffffffffffffff1673ffffffffffffffffffffffffffffffffffffffff1681526020016003820160149054906101000a900460ff1615151515815250509050919050565b60008083815260200190815260200160002060030160149054906101000a900460ff166102b5576040517f08c379a00000000000000000000000000000000000000000000000000000000081526004016102ac90610986565b60405180910390fd5b3373ffffffffffffffffffffffffffffffffffffffff1660008084815260200190815260200160002060030160009054906101000a900473ffffffffffffffffffffffffffffffffffffffff1673ffffffffffffffffffffffffffffffffffffffff1614610358576040517f08c379a000000000000000000000000000000000000000000000000000000000815260040161034f90610a78565b60405180910390fd5b8060008084815260200190815260200160002060030160006101000a81548173ffffffffffffffffffffffffffffffffffffffff021916908373ffffffffffffffffffffffffffffffffffffffff1602179055505050565b60008084815260200190815260200160002060030160149054906101000a900460ff16156103dd57600080fd5b6040518060a001604052808481526020018381526020018281526020013373ffffffffffffffffffffffffffffffffffffffff1681526020016001151581525060008085815260200190815260200160002060008201518160000155602082015181600101908161044e9190610c44565b506040820151816002015560608201518160030160006101000a81548173ffffffffffffffffffffffffffffffffffffffff021916908373ffffffffffffffffffffffffffffffffffffffff16021790555060808201518160030160146101000a81548160ff021916908315150217905550905050505050565b6040518060a00160405280600081526020016060815260200160008152602001600073ffffffffffffffffffffffffffffffffffffffff1681526020016000151581525090565b6000604051905090565b600080fd5b600080fd5b6000819050919050565b61053681610523565b811461054157600080fd5b50565b6000813590506105538161052d565b92915050565b60006020828403121561056f5761056e610519565b5b600061057d84828501610544565b91505092915050565b61058f81610523565b82525050565b600081519050919050565b600082825260208201905092915050565b60005b838110156105cf5780820151818401526020810190506105b4565b60008484015250505050565b6000601f19601f8301169050919050565b60006105f782610595565b61060181856105a0565b93506106118185602086016105b1565b61061a816105db565b840191505092915050565b600073ffffffffffffffffffffffffffffffffffffffff82169050919050565b600061065082610625565b9050919050565b61066081610645565b82525050565b60008115159050919050565b61067b81610666565b82525050565b600060a0830160008301516106996000860182610586565b50602083015184820360208601526106b182826105ec565b91505060408301516106c66040860182610586565b5060608301516106d96060860182610657565b5060808301516106ec6080860182610672565b508091505092915050565b600060208201905081810360008301526107118184610681565b905092915050565b61072281610645565b811461072d57600080fd5b50565b60008135905061073f81610719565b92915050565b6000806040838503121561075c5761075b610519565b5b600061076a85828601610544565b925050602061077b85828601610730565b9150509250929050565b600080fd5b600080fd5b7f4e487b7100000000000000000000000000000000000000000000000000000000600052604160045260246000fd5b6107c7826105db565b810181811067ffffffffffffffff821117156107e6576107e561078f565b5b80604052505050565b60006107f961050f565b905061080582826107be565b919050565b600067ffffffffffffffff8211156108255761082461078f565b5b61082e826105db565b9050602081019050919050565b82818337600083830152505050565b600061085d6108588461080a565b6107ef565b9050828152602081018484840111156108795761087861078a565b5b61088484828561083b565b509392505050565b600082601f8301126108a1576108a0610785565b5b81356108b184826020860161084a565b91505092915050565b6000806000606084860312156108d3576108d2610519565b5b60006108e186828701610544565b935050602084013567ffffffffffffffff8111156109025761090161051e565b5b61090e8682870161088c565b925050604061091f86828701610544565b9150509250925092565b600082825260208201905092915050565b7f50726f7065727479206973206e6f742072656769737465726564000000000000600082015250565b6000610970601a83610929565b915061097b8261093a565b602082019050919050565b6000602082019050818103600083015261099f81610963565b9050919050565b7f4e487b7100000000000000000000000000000000000000000000000000000000600052602260045260246000fd5b600060028204905060018216806109ed57607f821691505b602082108103610a00576109ff6109a6565b5b50919050565b7f4f6e6c7920746865206f776e65722063616e207472616e73666572206f776e6560008201527f7273686970000000000000000000000000000000000000000000000000000000602082015250565b6000610a62602583610929565b9150610a6d82610a06565b604082019050919050565b60006020820190508181036000830152610a9181610a55565b9050919050565b60008190508160005260206000209050919050565b60006020601f8301049050919050565b600082821b905092915050565b600060088302610afa7fffffffffffffffffffffffffffffffffffffffffffffffffffffffffffffffff82610abd565b610b048683610abd565b95508019841693508086168417925050509392505050565b6000819050919050565b6000610b41610b3c610b3784610523565b610b1c565b610523565b9050919050565b6000819050919050565b610b5b83610b26565b610b6f610b6782610b48565b848454610aca565b825550505050565b600090565b610b84610b77565b610b8f818484610b52565b505050565b5b81811015610bb357610ba8600082610b7c565b600181019050610b95565b5050565b601f821115610bf857610bc981610a98565b610bd284610aad565b81016020851015610be1578190505b610bf5610bed85610aad565b830182610b94565b50505b505050565b600082821c905092915050565b6000610c1b60001984600802610bfd565b1980831691505092915050565b6000610c348383610c0a565b9150826002028217905092915050565b610c4d82610595565b67ffffffffffffffff811115610c6657610c6561078f565b5b610c7082546109d5565b610c7b828285610bb7565b600060209050601f831160018114610cae5760008415610c9c578287015190505b610ca68582610c28565b865550610d0e565b601f198416610cbc86610a98565b60005b82811015610ce457848901518255600182019150602085019450602081019050610cbf565b86831015610d015784890151610cfd601f891682610c0a565b8355505b6001600288020188555050505b50505050505056fea26469706673582212200880558000d434cd0acbae87a969db30351bc871b280fff1da47c3153a2e221864736f6c63430008130033",
  "immutableReferences": {},
  "source": "// SPDX-License-Identifier: MIT\npragma solidity 0.8.19;\n\ncontract PropertyTrackingSystem {\n \n    // Property structure\n    struct Property {\n        uint propertyId;\n        string location;\n        uint size;\n        address owner;\n        bool isRegistered;\n    }\n\n    // Mapping to store properties by ID\n    mapping(uint => Property)  properties;\n\n  \n    // Function to register a new property\n    function registerProperty(uint id,string memory _location, uint _size) public {\n        require(!properties[id].isRegistered);\n        \n        // Create new property\n            properties[id] = Property({\n            propertyId: id,\n            location: _location,\n            size: _size,\n            owner: msg.sender,\n            isRegistered: true\n        });\n\n      \n    }\n\n    // Function to transfer ownership of a property\n    function transferOwnership(uint id, address _newOwner) public {\n        // Ensure property is registered\n        require(properties[id].isRegistered, \"Property is not registered\");\n\n        // Ensure the sender is the current owner\n        require(properties[id].owner == msg.sender, \"Only the owner can transfer ownership\");\n\n        // Transfer ownership\n        properties[id].owner = _newOwner;\n\n    }\n\n    // Function to get property details by ID\n    function getPropertyDetails(uint id) public view returns (Property memory ) {\n        // Ensure property is registered\n        require(properties[id].isRegistered, \"Property is not registered\");\n\n        return properties[id];\n    }\n}\n",
  "sourcePath": "C:\\Users\\haris\\OneDrive\\Desktop\\blockchain_project\\contracts\\PropertyTrackingSystem.sol",
  "compiler": {
    "name": "solc",
    "version": "0.8.19+commit.7dd6d404.Emscripten.clang"
  },
  "schemaVersion": "3.4.16",
  "updatedAt": "2024-09-22T10:54:36.511Z",
  "networkType": "ethereum",
  "devdoc": {
    "kind": "dev",
    "methods": {},
    "version": 1
  },
  "userdoc": {
    "kind": "user",
    "methods": {},
    "version": 1
  }
}